:100000000C945F000C9487000C9487000C9487007C
:100010000C9487000C9487000C9487000C94870044
:100020000C9487000C9487000C9487000C94870034
:100030000C9487000C9487000C9487000C94870024
:100040000C946B060C9487000C948D030C9467033E
:100050000C9487000C9487000C9487000C94870004
:100060000C94B5060C948700414D473838787820B9
:10007000746573740000000000250028002B000444
:10008000040404040404040202020202020303033F
:100090000303030102040810204080010204081039
:1000A00020010204081020000000080002010000E6
:1000B000030407000000000000000000A70E112448
:1000C0001FBECFEFD8E0DEBFCDBF23E0A2EBB1E093
:1000D00001C01D92A53AB207E1F711E0A0E0B1E03E
:1000E000E8E4F8E202C005900D92A23BB107D9F70F
:1000F00010E0CFE5D0E004C02197FE010E94081275
:10010000CE35D107C9F70E94810B0C9422140C94B0
:100110000000CF92DF92EF92FF920F931F93CF9345
:10012000DF936C017A018B01C0E0D0E0CE15DF05D2
:1001300089F0D8016D918D01D601ED91FC9101906E
:10014000F081E02DC6010995892B11F47E0102C0D2
:100150002196ECCFC701DF91CF911F910F91FF90B6
:10016000EF90DF90CF900895FC01538D448D252FA3
:1001700030E0842F90E0821B930B541710F0CF9641
:10018000089501970895FC01918D828D981761F073
:10019000828DDF01A80FB11D5D968C91928D9F5FBE
:1001A0009F73928F90E008958FEF9FEF0895FC0169
:1001B000918D828D981731F0828DE80FF11D858D1C
:1001C00090E008958FEF9FEF0895FC01918D228DAF
:1001D000892F90E0805C9F4F821B91098F73992734
:1001E000089588E792E00E94E50021E0892B09F458
:1001F00020E0822F0895FC01848DDF01A80FB11D3E
:10020000A35ABF4F2C91848D90E001968F7399274C
:10021000848FA689B7892C93A089B1898C91806439
:100220008C93938D848D981306C00288F389E02DFA
:1002300080818F7D80830895EF92FF920F931F93AB
:10024000CF93DF93EC0181E0888F9B8D8C8D981389
:1002500005C0E889F989808185FD24C0F62E0B8DC3
:1002600010E00F5F1F4F0F731127E02E8C8DE812E7
:100270000CC00FB607FCFACFE889F989808185FFA9
:10028000F5CFCE010E94FB00F1CF8B8DFE01E80F70
:10029000F11DE35AFF4FF0820B8FEA89FB898081C1
:1002A000806207C0EE89FF896083E889F9898081CF
:1002B0008064808381E090E0DF91CF911F910F9166
:1002C000FF90EF900895CF93DF93EC01888D882302
:1002D000C9F0EA89FB89808185FD05C0A889B989B3
:1002E0008C9186FD0FC00FB607FCF5CF808185FF8E
:1002F000F2CFA889B9898C9185FFEDCFCE010E94FC
:10030000FB00E7CFDF91CF91089580E090E0892B4B
:1003100029F00E94F10081110C94000008953FB76C
:10032000F89480911E0290911F02A0912002B0913A
:10033000210226B5A89B05C02F3F19F00196A11DEB
:10034000B11D3FBFBA2FA92F982F8827820F911D6B
:10035000A11DB11DBC01CD0142E0660F771F881FB2
:10036000991F4A95D1F7089585ED8093BC0080913F
:10037000BC0084FDFCCF1092530208954091F4011B
:10038000262F30E0240F311D21323105DCF420917D
:1003900053022430C9F4FC0180E090E0861758F441
:1003A0003091F4012191DC01AE52BE4FA30FB11D7B
:1003B0002C930196F3CF8091F401680F6093F401C0
:1003C00080E0089581E0089582E008950895E09125
:1003D0002C0280912B02E81730F4F0E0EE54FE4F2F
:1003E000808190E008958FEF9FEF089590912C0207
:1003F00080912B02981750F4E92FF0E0EE54FE4F55
:10040000208130E09F5F90932C0202C02FEF3FEFDE
:10041000C901089580912B0290E020912C02821B4B
:1004200091090895CF92DF92EF92FF920F931F935D
:10043000CF93DF937C01262F972F8A01809154025E
:10044000882391F0C62FD72F6E01C40ED51ECC1570
:10045000DD0571F06991D701ED91FC910190F0817A
:10046000E02DC7010995F3CF642F822F0E94BE01B2
:10047000C801DF91CF911F910F91FF90EF90DF9016
:10048000CF900895CF93DF931F92CDB7DEB76983E6
:10049000209154022223D1F020917702203240F0A3
:1004A00021E030E0FC013383228380E090E015C03E
:1004B00080915502E82FF0E0EA5AFD4F9981908330
:1004C0008F5F809355028093770205C061E0CE0173
:1004D00001960E94BE0181E090E00F90DF91CF91E4
:1004E0000895089580E090E008950E9405144F92C9
:1004F0005F926F927F928F929F92AF92BF92CF92B4
:10050000DF92EF92FF920F931F93CF93DF93EC0153
:100510008B01FB0184889588A688B788A501940182
:100520006C897D898E899F890E9495106B017C0161
:1005300020E030E0A9010E94A31118165CF42DEC14
:100540003CEC4CEC5EE3C701B6010E94180F87FF3C
:100550000FC00AC02DEC3CEC4CEC5EEBC701B601C1
:100560000E94A311181624F48C8A9D8AAE8ABF8A31
:10057000F80180889188A288B388A50194016889D0
:1005800079898A899B890E9495106B017C0120E002
:1005900030E0A9010E94A31118165CF42DEC3CEC8C
:1005A0004CEC5EE3C701B6010E94180F87FF0FC035
:1005B0000AC02DEC3CEC4CEC5EEBC701B6010E948E
:1005C000A311181624F4888A998AAA8ABB8ACCA017
:1005D000DDA0EEA0FFA0F80184A195A1A6A1B7A17E
:1005E000C81AD90AEA0AFB0ACC8EDD8EEE8EFF8E7F
:1005F0002089318942895389688979898A899B89C7
:100600000E9495104B015C01F801248935894689C7
:1006100057896C897D898E899F890E9495102B014D
:100620003C01A5019401C501B4010E947E0F4B015C
:100630005C01A3019201C301B2010E947E0F9B01E4
:10064000AC01C501B4010E9496100E94AE114B018D
:100650005C01688F798F8A8F9B8FC701B6010E94DA
:100660001D0F20E030E04AE754E40E9402119B0194
:10067000AC01C501B4010E94021168A379A38AA349
:100680009BA3DF91CF911F910F91FF90EF90DF908F
:10069000CF90BF90AF909F908F907F906F905F9022
:1006A0004F9008956115710579F0FB0101900020CC
:1006B000E9F73197AF01461B570BDC01ED91FC9137
:1006C0000280F381E02D099480E090E008951F926C
:1006D0000F920FB60F9211242F933F934F935F9376
:1006E0006F937F938F939F93AF93BF93EF93FF93FA
:1006F00088E792E00E94FB00FF91EF91BF91AF91DC
:100700009F918F917F916F915F914F913F912F9129
:100710000F900FBE0F901F9018951F920F920FB65B
:100720000F9211242F938F939F93EF93FF93E09158
:100730008802F09189028081E0918E02F0918F020F
:1007400082FD12C09081809191028F5F8F73209102
:100750009202821751F0E0919102F0E0E858FD4FCB
:10076000958F8093910201C08081FF91EF919F91BD
:100770008F912F910F900FBE0F901F9018958F9211
:100780009F92AF92BF92CF92DF92EF92FF926B0156
:100790007C010E948F014B015C01C114D104E10472
:1007A000F104F1F00E948F01DC01CB018819990955
:1007B000AA09BB09883E9340A105B10570F321E069
:1007C000C21AD108E108F10888EE880E83E0981E6D
:1007D000A11CB11CC114D104E104F10419F7DDCF4F
:1007E000FF90EF90DF90CF90BF90AF909F908F9051
:1007F00008952FB7F89460911A0270911B028091AE
:100800001C0290911D022FBF08952F923F924F928C
:100810005F926F927F928F929F92AF92BF92CF9290
:10082000DF92EF92FF920F931F93CF93DF93CDB799
:10083000DEB7C850D2400FB6F894DEBF0FBECDBFB2
:100840001C012DB73EB7C95FDD4F39832883C750E0
:10085000D2404DB75EB7405851090FB6F8945EBF0D
:100860000FBE4DBF8DB79EB701966C01512C44242D
:10087000439472EBA72E71E0B72EF1018081409274
:100880005402809376021092550210927702652DE1
:1008900070E060587F4F8DE593E00E9442020E9415
:1008A0005108F1018081009153020111FCCF10E841
:1008B0001519113208F010E2409253024092520290
:1008C000FFEFF0935102109250029FEF910F90931F
:1008D0004F0240922E0290912E02880F892B809316
:1008E0002E0280912D02813071F410922D028091A0
:1008F0002E028093BB008091BC0083FDF8CF25ECD5
:100900002093BC0003C035EE3093BC0080915302AD
:100910008130E1F380915002811718F480915002E8
:1009200001C0812FAFE2B2E0E2EBF1E09E2F9A1915
:10093000981718F49D919193F9CF10922C028093FF
:100940002B02E12CF12C612E712C852D8E0DE614DD
:10095000F7046CF44601880E911C8DE593E00E942B
:10096000F601F4018083FFEFEF1AFF0AEECF510E7C
:1009700020E8521608F481CFAE014F5F5E4FCD5F85
:10098000DD4F59834883C350D2407A01802F880FAE
:10099000F601E80FF11D818190E0982F88272081D2
:1009A000FC01E22B9F01A9015770BA0180E090E0A1
:1009B00037FF0AC00E941D0F9B01AC0160E070E090
:1009C000CB010E94951002C00E941D0F20E030E074
:1009D00040E85EE30E947E0FF7016193719381937B
:1009E00091937F010F5F003489F6C95FDD4F288145
:1009F0003981C750D2400FB6F8943EBF0FBE2DBF0D
:100A00000E94F903F10164A375A386A397A3DE01F5
:100A10001196CE018F5F9D4FCD5FDD4FE881F9814B
:100A2000C350D24041915191619171914D935D9329
:100A30006D937D93E817F907A9F72FE330E0CF5FB7
:100A4000DD4F39832883C150D240C12CD12CCF5FD8
:100A5000DD4F88819981C150D2408C0D9D1D97FD3D
:100A60000196FC01F595E795EE0FFF1FEE0FFF1FB6
:100A700041E050E04C0F5D1FE40FF51F8080918036
:100A8000A280B380CF5FDD4FE880F980C150D240B3
:100A90008601C801880F991F880F991FE1E0F0E0D7
:100AA000EC0FFD1FE80FF91F0E151F05B4F5CB5F06
:100AB000DD4FF983E883C550D24040805180628089
:100AC0007380A5019401C301B2010E94A31187FDA7
:100AD00021C0F701EE0FFF1FEE0FFF1F21E030E0F6
:100AE0002C0F3D1FE20FF31F80819181A281B38102
:100AF0004082518262827382CB5FDD4FE881F9814F
:100B0000C550D24080839183A283B383F1E0EF1A72
:100B1000F108BFCF0F5F1F4FBCCFA50194016081CB
:100B20007181828193810E94A311181614F40150DF
:100B30001109003211052CF468012FEFC21AD20AF4
:100B400006C0CF5FDD4F19830883C150D240CF5F0D
:100B5000DD4F48815981C150D240C416D5060CF4EE
:100B600076CFCF57DF4F88809980AA80BB80C1584D
:100B7000D040E12CF12C00E010E0D12CCD5FDD4F16
:100B8000E881F981C350D2404190519061907190B9
:100B9000CD5FDD4FF983E883C350D24020E030E0E1
:100BA00040EC5FE3C501B4010E9496109B01AC01CB
:100BB000C301B2010E94A3111816DCF5B70183E04E
:100BC000759567958A95E1F7072E000C880B990BB0
:100BD0000E941F0F23E333E343E75FE30E947E0F8E
:100BE0009B01AC01F10164897589868997890E940E
:100BF0009610F101648B758B868B978BB7016770AC
:100C00007727072E000C880B990B0E941F0F9B0162
:100C1000AC01F10160897189828993890E949610E3
:100C2000F101608B718B828B938B0F5F1F4FDD24E3
:100C3000D394FFEFEF1AFF0A20E4E216F10409F063
:100C40009DCFDD2019F1B801110F880B990B0E947F
:100C50001F0F6B017C019B01AC01F1016489758957
:100C6000868997890E940211F101648B758B868BAE
:100C7000978BA701960160897189828993890E9467
:100C80000211F101608B718B828B938BC95FDD4FF9
:100C900028813981C750D2400FB6F8943EBF0FBEAD
:100CA0002DBFC85FDD4F0FB6F894DEBF0FBECDBFBE
:100CB000DF91CF911F910F91FF90EF90DF90CF9038
:100CC000BF90AF909F908F907F906F905F904F906C
:100CD0003F902F9008951F920F920FB60F921124FC
:100CE0002F933F938F939F93AF93BF9380911A025B
:100CF00090911B02A0911C02B0911D02309119022B
:100D000023E0230F2D3720F40196A11DB11D05C04E
:100D100026E8230F0296A11DB11D2093190280938E
:100D20001A0290931B02A0931C02B0931D028091A3
:100D30001E0290911F02A0912002B0912102019603
:100D4000A11DB11D80931E0290931F02A09320024B
:100D5000B0932102BF91AF919F918F913F912F91BD
:100D60000F900FBE0F901F9018951F920F920FB605
:100D70000F9211242F933F934F935F936F937F9321
:100D80008F939F93AF93BF93EF93FF938091B9009D
:100D9000887F803609F49CC068F5883209F45BC00E
:100DA00090F4803109F454C038F4882309F4F6C073
:100DB000883009F44DC0F6C0883109F44CC0803247
:100DC00009F45DC0EFC0803409F468C048F4803392
:100DD00009F455C0883309F0E5C080935102D8C0AA
:100DE000803509F44FC0883509F45DC0883409F0B6
:100DF000D9C0D6C0883909F4C7C0A8F4883709F427
:100E000067C038F4883609F463C0803709F460C0DD
:100E1000C9C0883809F4B8C0803909F45FC0803887
:100E200009F0C0C05BC0803B09F486C038F4803A4A
:100E300009F466C0883A09F47FC0B4C0803C09F464
:100E4000A7C0883C09F4A4C0883B09F48AC0AAC0A2
:100E500080912E0210C09091500280914F029817FD
:100E600070F5E091500281E08E0F80935002F0E027
:100E7000E15DFD4F80818093BB0085EC86C080934F
:100E800051028EC0E091500281E08E0F809350029B
:100E90008091BB00F0E0E15DFD4F808390915002B6
:100EA00080914F026EC0E091500281E08E0F8093DE
:100EB00050028091BB00F0E0E15DFD4F80838091A6
:100EC000520281116DC081E080932D0284EA61C0DD
:100ED00083E08093530210921802CFCF80911802C2
:100EE000803208F051C0E091180281E08E0F8093AB
:100EF00018028091BB00F0E0E850FE4F8083BDCF28
:100F000085EC8093BC0010925302809118028032CD
:100F100030F4E0911802F0E0E850FE4F108260914A
:100F2000180270E0E091F601F091F70188EF91E08E
:100F300009951092180236C084E0809353021092F3
:100F4000F5011092F401E091F201F091F30109959D
:100F50008091F401811105C081E08093F401109229
:100F6000D201E091F50181E08E0F8093F501F0E070
:100F7000EE52FE4F80818093BB009091F5018091ED
:100F8000F401981708F479CF85E88093BC000AC073
:100F900085EC8093BC001092530204C01092510261
:100FA0000E94B401FF91EF91BF91AF919F918F91FA
:100FB0007F916F915F914F913F912F910F900FBE55
:100FC0000F901F90189590E0FC01E955FF4F249178
:100FD000FC01ED56FF4F3491FC01E158FF4FE491C5
:100FE000EE23B1F1222339F1233091F038F421308E
:100FF000A9F0223001F584B58F7D12C0273091F021
:101000002830A1F02430B9F4809180008F7D03C096
:10101000809180008F77809380000DC084B58F779A
:1010200084BD09C08091B0008F7703C08091B0006B
:101030008F7D8093B000F0E0EE0FFF1FEB58FF4F65
:10104000A591B4918FB7F894EC913E2B3C938FBF50
:101050000895E8E7F2E0A089B18982E08C93A48545
:10106000B5851C92A685B7858FEC8C93108EA489CC
:10107000B58986E08C93A289B3898C9180618C9329
:10108000A289B3898C9188608C93A289B3898C9151
:1010900080688C930288F389E02D80818F7D808326
:1010A00008952091770290917602213208F04AC08B
:1010B000809153028111FCCF32E03093530231E032
:1010C000309352023FEF309351021092500220931E
:1010D0004F02A6E5B2E04FE252E0FA013E2F341B88
:1010E000321718F43D913193F9CF10922E022091CE
:1010F0002E02990F922B90932E0290912D029130F7
:1011000061F410922D0290912E029093BB00909169
:10111000BC0093FDF8CF95EC01C095EE9093BC0018
:10112000909153029230E1F3909151029F3F79F0F8
:1011300080915102803241F080915102803331F030
:1011400084E005C081E003C082E001C083E010922A
:10115000550210927702109254020895CF93DF93B4
:10116000EB019091690321E0209354029093760261
:101170001092550210927702682F8DE593E00E943D
:10118000420268818DE593E00E944202DF91CF9197
:101190000C945108EF92FF920F931F93CF93DF931C
:1011A00000D000D0CDB7DEB789E6E82E83E0F82E78
:1011B00088E6F701808310922C0210922B02109285
:1011C0005502109277021092530281E080935202EE
:1011D00010922D0282E10E94E30783E10E94E3075F
:1011E000E9EBF0E080818E7F808380818D7F80833A
:1011F00088E48093B80085E48093BC00F7011182F5
:101200001C82BE016C5F7F4F80E00E94AE088FE3BE
:10121000F70182838B83BE016D5F7F4F81E00E9467
:10122000AE08EDE6F3E080818E7F808381FB0027AE
:1012300000F910E0000F111F0A83BE016E5F7F4F9F
:1012400083E00E94AE08ECE6F3E080818E7F80832D
:101250001982BE016F5F7F4F82E00E94AE0864E694
:1012600070E080E090E00E94BF0381E00F900F905B
:101270000F900F90DF91CF911F910F91FF90EF9002
:1012800008950F931F930E94F90360938002709357
:1012900081028093820290938302E0917802F09120
:1012A00079020284F385E02D88E792E0099597FFA3
:1012B0001FC00E94F90300918002109181022091C9
:1012C000820230918302DC01CB01801B910BA20BC7
:1012D000B30B00917C0210917D0220917E0230912F
:1012E0007F0280179107A207B307B8F28FEF9FEF35
:1012F0001F910F9108950F931F93CF93DF93EC01EC
:1013000088819981009729F02A813B812617370728
:1013100088F48B016F5F7F4F0E943B13009761F051
:10132000998388831B830A832C813D81232B11F4AD
:10133000FC01108281E001C080E0DF91CF911F911C
:101340000F910895EF92FF920F931F93CF93DF9326
:10135000EC01198218821B821A821D821C8261157F
:10136000710549F18B01FB0101900020E9F73197EC
:101370007F01E61AF70AB7010E947B0928813981AB
:1013800081110DC02115310519F0C9010E94A31268
:10139000198218821D821C821B821A820CC0FD8257
:1013A000EC82B801C901DF91CF911F910F91FF909D
:1013B000EF900C941B14DF91CF911F910F91FF9030
:1013C000EF9008954F925F926F927F92EF92FF920B
:1013D0000F931F93CF93DF93CDB7DEB7A1970FB6CF
:1013E000F894DEBF0FBECDBF7C01FA01CB0119A27C
:1013F000223008F42AE08E010F5D1F4F422E512C3F
:10140000612C712CBF01A30192010E943C10F901D3
:10141000CA01015011096A3014F4605D01C0695CB1
:10142000D8016C93232B242B252B61F7B801C7011E
:101430000E945203A1960FB6F894DEBF0FBECDBF37
:10144000DF91CF911F910F91FF90EF907F906F9060
:101450005F904F9008954F925F926F927F928F921C
:101460009F92AF92BF92CF92DF92EF92FF926B0169
:101470007C01B42E9B01AC010E94EE11882319F06F
:101480006FE971E027C026013701E89477F82FEF64
:101490003FEF4FE75FE7C301B2010E94EE118111F8
:1014A0000DC02FEF3FEF4FE75FE7C301B2010E948E
:1014B000180F18161CF463EA71E00CC02FEF3FEF11
:1014C0004FE75FE4C701B6010E94A311181694F418
:1014D00067EA71E088E792E0FF90EF90DF90CF90AD
:1014E000BF90AF909F908F907F906F905F904F9044
:1014F0000C9452032FEF3FEF4FE75FECC701B601AB
:101500000E94180F87FDE4CF20E030E0A901C70159
:10151000B6010E94180F87FF11C0E0917802F09188
:1015200079020190F081E02D6DE288E792E0099563
:101530004C01F7FAF094F7F8F09402C0812C912C4A
:10154000A12C60E070E080E09FE3AB1441F020E06C
:1015500030E040E251E40E940211A394F6CF9B01D7
:10156000AC01C701B6010E9496102B013C010E94FC
:1015700074116B017C010E941D0F9B01AC01C30122
:10158000B2010E9495102B013C012AE0B701A6018F
:1015900088E792E00E94E2097C01E80CF91CBB207C
:1015A00069F0E0917802F09179020190F081E02DEC
:1015B0006EE288E792E00995E80EF91EDB2CDD204B
:1015C00031F120E030E040E251E4C301B2010E9479
:1015D0007E0F2B013C010E9474114B01A12CB12CF8
:1015E0002AE0B501A40188E792E00E94E209E80E32
:1015F000F91EC501B4010E941D0F9B01AC01C3017E
:10160000B2010E9495102B013C01DA94D8CFC7019A
:10161000FF90EF90DF90CF90BF90AF909F908F9012
:101620007F906F905F904F9008950F931F93CF938B
:10163000DF93EC010E9452038C0169E371E0CE015B
:101640000E945203800F911FDF91CF911F910F9144
:1016500008950C945203CF93DF93EC016BEA71E091
:1016600088E792E00E94290B6CA17DA18EA19FA129
:1016700024E630E040E050E00E943C10BA01A901AD
:101680002AE088E792E00E94E2096DEA71E088E7CB
:1016900092E00E94290B688979898A899B8942E0B6
:1016A0000E942B0A6DEA71E088E792E00E94290B04
:1016B0006C897D898E899F8942E00E942B0A6DEAA0
:1016C00071E088E792E00E94290B688D798D8A8D00
:1016D0009B8D42E00E942B0A6DEA71E088E792E060
:1016E0000E94290B68A179A18AA19BA142E00E94D6
:1016F0002B0A6FEA71E088E792E0DF91CF910C94BA
:10170000150BCF93DF93CDB7DEB7C555D1090FB613
:10171000F894DEBF0FBECDBF789484B5826084BDDF
:1017200084B5816084BD85B5826085BD85B58160E5
:1017300085BD80916E00816080936E001092810063
:10174000809181008260809381008091810081601E
:1017500080938100809180008160809380008091DF
:10176000B10084608093B1008091B000816080936B
:10177000B00080917A00846080937A0080917A0032
:10178000826080937A0080917A00816080937A00F1
:1017900080917A00806880937A001092C100109244
:1017A000590310925A0310925B0310925C0310923B
:1017B0001703109218031092190310921A030E9433
:1017C000F9036B017C014B015C0128EB820E2BE0DD
:1017D000921EA11CB11C0E94F9036C157D058E059B
:1017E0009F0528F086169706A806B906A0F788E791
:1017F00092E090935803809357030E9429080E9417
:10180000F90360931703709318038093190390935F
:101810001A036AE271E080915703909158030E9485
:10182000290B0E94F9036B017C014B015C013AE03A
:10183000830E911CA11CB11C0E94F9036C157D053F
:101840008E059F0528F086169706A806B906A0F70C
:1018500081E080932B030E94290808E610E0F8013C
:10186000649161110AC069E371E088E792E00E9427
:1018700052030E94CA08182F0FC0E0917802F0911D
:1018800079020190F081E02D88E792E009950F5FE1
:101890001F4F892B21F7E7CF111110C00E94CA08F2
:1018A000182F6CE371E088E792E00E94150B68E85E
:1018B00073E180E090E00E94BF03EECF64E670E049
:1018C00080E090E00E94BF0389E793E00E94050456
:1018D000C12CD12C80E8E82E8FEBF82E44244A94BA
:1018E000542C320128E2322E0E94F903672B682B18
:1018F000692B41F40E94F90362307105810591055D
:1019000008F41AC10E94F903609327027093280219
:101910008093290290932A020091230210912402BD
:1019200020912502309126026017710782079307E4
:1019300040F46093230270932402809325029093D5
:101940002602009123021091240220912502309159
:1019500026024B015C01801A910AA20AB30A950182
:1019600084010A3F11052105310508F4E5C06093A3
:10197000230270932402809325029093260224EF81
:1019800031E040E050E02093230330932403409360
:1019900025035093260310922703109228031092D8
:1019A000290310922A0380911B0390911C03A0919C
:1019B0001D03B0911E0380931F0390932003A093F7
:1019C0002103B09322030E94F90360931B037093D9
:1019D0001C0380931D0390931E030E94F9036093E0
:1019E0001703709318038093190390931A030E94AE
:1019F000F9034B015C0161E771E08091570390911D
:101A000058030E94290B2AE041E050E060E070E0BA
:101A100080915703909158030E94E20968E771E0B2
:101A200080915703909158030E94290B2AE0B50139
:101A3000A40180915703909158030E94E2096AE73C
:101A400071E080915703909158030E94290B809177
:101A50001B0390911C03A0911D03B0911E03B501BF
:101A6000A401481B590B6A0B7B0B2AE0809157039A
:101A7000909158030E94E2096AE771E08091570350
:101A8000909158030E94290B40911B0350911C0315
:101A900060911D0370911E0380911F03909120039C
:101AA000A0912103B0912203481B590B6A0B7B0BB9
:101AB0002AE080915703909158030E94E2096CE755
:101AC00071E080915703909158030E94290B0E9466
:101AD000F903AB01BC012AE08091570390915803B0
:101AE0000E94E2096EE771E08091570390915803DC
:101AF0000E94150B0E94F9034B015C019B01AC0194
:101B00002E5F3F4F4F4F5F4F65962CAF3DAF4EAFAF
:101B10005FAF65970E94F903681579058A059B05F3
:101B200008F008C10E94F90360931B0370931C0323
:101B300080931D0390931E0388E792E00E94E500C6
:101B4000181619060CF077C06BE371E0CE01899688
:101B50000E94A2090E94410997FD1EC08C37910581
:101B6000D9F089831A820DA51EA50F5F1F4FB801FA
:101B7000CE0189960E947B09882361F329A53AA5A5
:101B80008DA59EA5BE016F5F7F4F820F931F0E94A0
:101B90001B141EA70DA7DECF65E871E0CE010196EC
:101BA0000E94A2098DA59EA54D815E8139812A8062
:101BB0008417950729F5892B09F109A51AA5A32EE4
:101BC000B22CF80181918F018823C1F0082E000CFE
:101BD000990B66963FAF66970E940A144C01D50197
:101BE0008D915D01082E000C990B0E940A146696D7
:101BF0003FAD66978816990621F302C011E001C037
:101C000010E0832F922D0E94A312112381F088E708
:101C100092E00E9463016EE871E088E792E00E9422
:101C2000150B68EE73E080E090E00E94BF0389A589
:101C30009AA50E94A31219AE1AAE1BAE1CAE219635
:101C40001CAE1DAE1EAE1FAE21972596CCAEDDAEEE
:101C5000EEAEFFAE259729964CAE5DAE6EAE7FAE72
:101C600029972D96CCAEDDAEEEAEFFAE2D97E9E610
:101C7000F3E0DE01999680E101900D928A95E1F7FB
:101C8000CE0189960E940504E9E7F3E0DE01119692
:101C9000832D01900D928A95E1F7BE016F5F7F4F12
:101CA000CE0189960E9477022091890330918A03A0
:101CB00040918B0350918C0369AD7AAD8BAD9CAD97
:101CC0000E94180F811112C020918D0330918E0354
:101CD00040918F035091900321966CAD7DAD8EADF8
:101CE0009FAD21970E94180F882381F080912202D6
:101CF000811104C089E793E00E942B0BCE018996E5
:101D00000E942B0BF1E0F093220202C010922202FB
:101D1000FE01B996A9E7B3E0832D01900D928A9553
:101D2000E1F764EF71E080E090E00E94BF030E9461
:101D30008501DACD65962CAD3DAD4EAD5FAD6597B5
:101D4000261737074807590708F0E4CEEBCEE8E737
:101D5000F2E01382128288EE93E0A0E0B0E0848388
:101D60009583A683B7832AE031E03183208325EC75
:101D700030E03587248724EC30E03787268720EC55
:101D800030E0318B208B21EC30E0338B228B22EC46
:101D900030E0358B248B26EC30E0378B268B118E90
:101DA000128E138E148EE5E1F3E0168217821086F0
:101DB0001186128613861486158616861786108A53
:101DC000118A128A138A148A158AEDE5F3E01382C8
:101DD000128284839583A683B7838CE191E09183FB
:101DE0008083E9E7F3E0108A118A128A138A148A41
:101DF000158A168A178A80E090E0A0E8BFEB808FF2
:101E0000918FA28FB38F4FEF5FEFBA01448F558F41
:101E1000668F778F80A391A3A2A3B3A380E1E9E6A5
:101E2000F3E0A9E7B3E001900D928A95E1F70895F8
:101E30000E945A0F08F481E00895E89409C097FBC6
:101E40003EF490958095709561957F4F8F4F9F4F91
:101E50009923A9F0F92F96E9BB279395F6958795D5
:101E600077956795B795F111F8CFFAF4BB0F11F498
:101E700060FF1BC06F5F7F4F8F4F9F4F16C088233F
:101E800011F096E911C0772321F09EE8872F762F75
:101E900005C0662371F096E8862F70E060E02AF0B6
:101EA0009A95660F771F881FDAF7880F96958795A2
:101EB00097F90895990F0008550FAA0BE0E8FEEF77
:101EC00016161706E807F907C0F012161306E407FE
:101ED000F50798F0621B730B840B950B39F40A26F7
:101EE00061F0232B242B252B21F408950A2609F4D5
:101EF000A140A6958FEF811D811D08950E94910F2D
:101F00000C9402100E94F40F38F00E94FB0F20F096
:101F1000952311F00C94EB0F0C94F10F11240C94F9
:101F200036100E94131070F3959FC1F3950F50E087
:101F3000551F629FF001729FBB27F00DB11D639F7B
:101F4000AA27F00DB11DAA1F649F6627B00DA11D21
:101F5000661F829F2227B00DA11D621F739FB00DC7
:101F6000A11D621F839FA00D611D221F749F332737
:101F7000A00D611D231F849F600D211D822F762FD0
:101F80006A2F11249F5750409AF0F1F088234AF0AD
:101F9000EE0FFF1FBB1F661F771F881F9150504019
:101FA000A9F79E3F510580F00C94EB0F0C9436106E
:101FB0005F3FE4F3983ED4F3869577956795B795A0
:101FC000F795E7959F5FC1F7FE2B880F911D9695BA
:101FD000879597F9089597F99F6780E870E060E02A
:101FE00008959FEF80EC089500240A9416161706B2
:101FF00018060906089500240A94121613061406FA
:1020000005060895092E0394000C11F4882352F05C
:10201000BB0F40F4BF2B11F460FF04C06F5F7F4F14
:102020008F4F9F4F089557FD9058440F551F59F0FB
:102030005F3F71F04795880F97FB991F61F09F3FB5
:1020400079F087950895121613061406551FF2CFDE
:102050004695F1DF08C0161617061806991FF1CF2E
:1020600086957105610508940895E894BB27662755
:102070007727CB0197F90895A1E21A2EAA1BBB1B63
:10208000FD010DC0AA1FBB1FEE1FFF1FA217B30744
:10209000E407F50720F0A21BB30BE40BF50B661F5A
:1020A000771F881F991F1A9469F76095709580951E
:1020B00090959B01AC01BD01CF0108952F923F92F5
:1020C0004F925F926F927F928F929F92AF92BF9248
:1020D000CF92DF92EF92FF920F931F93CF93DF93F4
:1020E000CDB7DEB7CA1BDB0B0FB6F894DEBF0FBE51
:1020F000CDBF09942A88398848885F846E847D849E
:102100008C849B84AA84B984C884DF80EE80FD809F
:102110000C811B81AA81B981CE0FD11D0FB6F89415
:10212000DEBF0FBECDBFED0108955058BB27AA27D3
:102130000E94AD100C9402100E94F40F38F00E941F
:10214000FB0F20F039F49F3F19F426F40C94F10FA3
:102150000EF4E095E7FB0C94EB0FE92F0E941310AF
:1021600058F3BA17620773078407950720F079F4CC
:10217000A6F50C9435100EF4E0950B2EBA2FA02D79
:102180000B01B90190010C01CA01A0011124FF2724
:10219000591B99F0593F50F4503E68F11A16F0401F
:1021A000A22F232F342F4427585FF3CF469537951E
:1021B0002795A795F0405395C9F77EF41F16BA0BE3
:1021C000620B730B840BBAF09150A1F0FF0FBB1F91
:1021D000661F771F881FC2F70EC0BA0F621F731FDA
:1021E000841F48F4879577956795B795F7959E3F37
:1021F00008F0B0CF9395880F08F09927EE0F9795C8
:10220000879508950E9416110C9402100E94FB0FEE
:1022100058F00E94F40F40F029F45F3F29F00C942D
:10222000EB0F51110C9436100C94F10F0E94131007
:1022300068F39923B1F3552391F3951B550BBB27F5
:10224000AA2762177307840738F09F5F5F4F220F3A
:10225000331F441FAA1FA9F335D00E2E3AF0E0E831
:1022600032D091505040E695001CCAF72BD0FE2F7B
:1022700029D0660F771F881FBB1F2617370748070F
:10228000AB07B0E809F0BB0B802DBF01FF279358C7
:102290005F4F3AF09E3F510578F00C94EB0F0C9491
:1022A00036105F3FE4F3983ED4F3869577956795B3
:1022B000B795F7959F5FC9F7880F911D96958795FC
:1022C00097F90895E1E0660F771F881FBB1F62171B
:1022D00073078407BA0720F0621B730B840BBA0BD9
:1022E000EE1F88F7E09508950E941B1088F09F5715
:1022F00098F0B92F9927B751B0F0E1F0660F771F2A
:10230000881F991F1AF0BA95C9F714C0B13091F01F
:102310000E943510B1E008950C943510672F782F86
:102320008827B85F39F0B93FCCF3869577956795E4
:10233000B395D9F73EF490958095709561957F4F50
:102340008F4F9F4F08950E945A0F08F48FEF089502
:1023500019F416F40C94F10F0C94F3110E941B1055
:10236000B8F39923C9F3B6F39F57550B87FF0E9423
:1023700001120024A0E640EA9001805856959795F6
:1023800028F4805C660F771F881F20F02617370718
:10239000480730F4621B730B840B202931294A2B28
:1023A000A69517940794202531254A2758F7660FDC
:1023B000771F881F20F026173707480730F4620B75
:1023C000730B840B200D311D411DA09581F7B901C0
:1023D000842F9158880F9695879508950E945A0FDB
:1023E000880B990B08959F3F31F0915020F4879509
:1023F00077956795B795880F911D9695879597F96D
:10240000089591505040660F771F881FD2F70895A6
:10241000EE0FFF1F0590F491E02D0994CF93DF9309
:102420008230910510F482E090E0E091A303F091F6
:10243000A40320E030E0C0E0D0E0309711F140810B
:10244000518148175907C0F04817590761F4828134
:102450009381209719F09B838A832BC09093A403C8
:102460008093A30326C02115310519F042175307A5
:1024700018F49A01BE01DF01EF010280F381E02D23
:10248000DCCF2115310509F1281B390B243031052A
:1024900090F412968D919C9113976115710521F01E
:1024A000FB019383828304C09093A4038093A303CE
:1024B000FD01329644C0FD01E20FF31F8193919319
:1024C000225031092D933C933AC02091A1033091C1
:1024D000A203232B41F42091020130910301309398
:1024E000A2032093A1032091000130910101211545
:1024F000310541F42DB73EB74091040150910501DB
:10250000241B350BE091A103F091A203E217F3071E
:10251000A0F42E1B3F0B2817390778F0AC014E5F53
:102520005F4F2417350748F04E0F5F1F5093A203EB
:102530004093A1038193919302C0E0E0F0E0CF01CA
:10254000DF91CF9108950F931F93CF93DF9300975F
:1025500009F48CC0FC013297138212820091A3030C
:102560001091A4030115110581F420813181820F9E
:10257000931F2091A1033091A2032817390779F501
:10258000F093A203E093A10371C0D80140E050E0B2
:10259000AE17BF0750F412962D913C911397AD01E1
:1025A0002115310509F1D901F3CF9D01DA013383FA
:1025B000228360817181860F971F8217930769F4C8
:1025C000EC0128813981260F371F2E5F3F4F318361
:1025D00020838A819B8193838283452B29F4F09306
:1025E000A403E093A30342C01396FC93EE931297C7
:1025F000ED01499159919E01240F351FE217F30710
:1026000071F480819181840F951F029611969C939D
:102610008E938281938113969C938E931297E0E020
:10262000F0E0D80112968D919C911397009719F0C4
:10263000F8018C01F6CF8D919C9198012E5F3F4F50
:10264000820F931F2091A1033091A203281739070D
:1026500069F4309729F41092A4031092A30302C0E6
:10266000138212821093A2030093A103DF91CF91F2
:102670001F910F910895A0E0B0E0E1E4F3E10C9424
:102680006210EC01009721F4CB010E940E12B8C039
:10269000FC01E60FF71F9C0122503109E217F307F6
:1026A00008F4ACC0D9010D911C91119706171707BA
:1026B000B0F00530110508F49FC0C80104978617D3
:1026C000970708F499C002501109061B170B0193D4
:1026D00011936D937C93CF010E94A3128DC05B0177
:1026E000A01AB10A4C01800E911EA091A303B091D3
:1026F000A40340E050E0E12CF12C109709F44AC00B
:10270000A815B905D1F56D907C901197630182E011
:10271000C80ED11CCA14DB0480F1A3014A195B095D
:102720006A0182E0C80ED11C1296BC9012971396D3
:10273000AC91B5E0CB16D10440F0B282A3835183B3
:102740004083D9016D937C930AC00E5F1F4FC30174
:10275000800F911FF90191838083EB2DFA2FE114F3
:10276000F10431F0D7011396FC93EE93129744C015
:10277000F093A403E093A3033FC08D919C91119724
:102780004817590708F4AC017D0112960D90BC91D1
:10279000A02DB3CF8091A1039091A2038815990534
:1027A000E1F446175707C8F48091000190910101A8
:1027B000009741F48DB79EB74091040150910501F7
:1027C000841B950BE817F907C8F4F093A203E09374
:1027D000A103F901718360830FC0CB010E940E1227
:1027E0007C01009759F0A801BE010E941214CE018D
:1027F0000E94A312C70104C0CE0102C080E090E095
:10280000CDB7DEB7EEE00C947E1081E090E0F89456
:102810000C9422149111089581548A5108F4805E19
:10282000855A0895FB01DC0102C001900D924150D0
:102830005040D8F70895FB01DC0101900D92002073
:08284000E1F70895F894FFCFC1
:102848000000A5038000000000001C018900B400FE
:102858006301E500C300D700000000004202120235
:102868007202E6010A02F601E701564D4450565F2E
:10287800317C315F564D4450560D0A00436F756CDC
:1028880064206E6F742066696E6420612076616CC6
:10289800696420414D47383878782073656E736FC6
:1028A800722C20636865636B20776972696E672193
:1028B80000564D4450455F003A323A007C005F565E
:1028C8004D445045006964656E74696679004C6FC3
:1028D800636174696F6E2041726475696E6F006E12
:1028E800616E00696E66006F7666005B002C005DA5
:0228F8000000DE
:107800000C94343C0C94513C0C94513C0C94513CE1
:107810000C94513C0C94513C0C94513C0C94513CB4
:107820000C94513C0C94513C0C94513C0C94513CA4
:107830000C94513C0C94513C0C94513C0C94513C94
:107840000C94513C0C94513C0C94513C0C94513C84
:107850000C94513C0C94513C0C94513C0C94513C74
:107860000C94513C0C94513C11241FBECFEFD8E036
:10787000DEBFCDBF11E0A0E0B1E0ECE9FFE702C060
:1078800005900D92A230B107D9F712E0A2E0B1E065
:1078900001C01D92AD30B107E1F70E942D3D0C945F
:1078A000CC3F0C94003C982F959595959595959582
:1078B000905D8F708A307CF0282F295A8091C0000B
:1078C00085FFFCCF9093C6008091C00085FFFCCF60
:1078D0002093C6000895282F205DF0CF982F809127
:1078E000C00085FFFCCF9093C6000895EF92FF92F1
:1078F0000F931F93EE24FF2487018091C00087FD22
:1079000017C00894E11CF11C011D111D81E4E8164B
:1079100082E4F8068FE0080780E0180770F3E09132
:107920000401F091050109958091C00087FFE9CF1E
:107930008091C6001F910F91FF90EF9008950E94D3
:10794000763C982F8091C00085FFFCCF9093C600B5
:1079500091362CF490330CF09053892F089597555D
:10796000892F08951F930E949F3C182F0E949F3CCF
:107970001295107F810F1F9108951F93182F882350
:1079800021F00E94763C1150E1F71F9108951F935A
:10799000182F0E94763C803249F0809103018F5F5E
:1079A000809303018530C1F01F9108958091C0003C
:1079B00085FFFCCF84E18093C6008091C00085FFE5
:1079C000FCCF1093C6008091C00085FFFCCF80E102
:1079D0008093C6001F910895E0910401F091050184
:1079E00009951F9108950E94763C803241F0809164
:1079F00003018F5F80930301853081F008958091AA
:107A0000C00085FFFCCF84E18093C6008091C00058
:107A100085FFFCCF80E18093C6000895E0910401CA
:107A2000F09105010995089540E951E08823A1F0FE
:107A30002D9A28EE33E0FA013197F1F721503040CA
:107A4000D1F72D9828EE33E0FA013197F1F7215064
:107A50003040D1F7815061F708953F924F925F9285
:107A60006F927F928F929F92AF92BF92CF92DF924E
:107A7000EF92FF920F931F93CF93DF93000080E16B
:107A80008093C4001092C50088E18093C10086E015
:107A90008093C2005098589A259A81E00E94143D24
:107AA00024E1F22E9EE1E92E85E9D82E0FE0C02ECA
:107AB00010E1B12EAA24A394B1E49B2EA6E58A2E50
:107AC000F2E57F2EE0E26E2E79E4572E63E5462E36
:107AD00050E5352E0E94763C8033B1F18133B9F107
:107AE000803409F46FC0813409F476C0823409F41B
:107AF00085C0853409F488C0803531F1823521F1A3
:107B0000813511F1853509F485C0863509F48DC0BC
:107B1000843609F496C0843709F403C1853709F423
:107B200072C1863709F466C0809103018F5F80932C
:107B30000301853079F6E0910401F0910501099582
:107B40000E94763C803351F60E94F33CC3CF0E94E2
:107B5000763C803249F78091C00085FFFCCFF092DF
:107B6000C6008091C00085FFFCCF9092C600809136
:107B7000C00085FFFCCF8092C6008091C00085FFC9
:107B8000FCCF7092C6008091C00085FFFCCF609250
:107B9000C6008091C00085FFFCCF5092C600809146
:107BA000C00085FFFCCF4092C6008091C00085FFD9
:107BB000FCCF3092C6008091C00085FFFCCFB09210
:107BC000C60088CF0E94763C863808F4BDCF0E945C
:107BD000763C0E94F33C7ECF0E94763C803809F4CC
:107BE0009CC0813809F40BC1823809F43CC1883942
:107BF00009F48FC080E00E94C73C6CCF84E10E94F2
:107C0000BD3C0E94F33C66CF85E00E94BD3C0E94D3
:107C1000F33C60CF0E94763C809306010E94763C44
:107C2000809307010E94F33C55CF0E94763C80333D
:107C300009F41DC183E00E94BD3C80E00E94C73C66
:107C400049CF0E94763C809309020E94763C809343
:107C5000080280910C028E7F80930C020E94763C79
:107C6000853409F415C18091080290910902892B8D
:107C700089F000E010E00E94763CF801E85FFE4FDA
:107C800080830F5F1F4F80910802909109020817AF
:107C9000190788F30E94763C803209F045CF809125
:107CA0000C0280FF01C16091060170910701660F0F
:107CB000771F7093070160930601A0910802B091AD
:107CC00009021097C9F0E8E0F1E09B01AD014E0F09
:107CD0005F1FF999FECF32BD21BD819180BDFA9A17
:107CE000F99A2F5F3F4FE417F50799F76A0F7B1F4B
:107CF00070930701609306018091C00085FFFCCF5F
:107D0000F092C6008091C00085FFFCCFB092C60003
:107D1000E1CE83E00E94C73CDDCE82E00E94C73CFA
:107D2000D9CE0E94763C809309020E94763C8093D3
:107D300008028091060190910701880F991F909386
:107D40000701809306010E94763C853409F4A6C0A1
:107D500080910C028E7F80930C020E94763C8032D0
:107D600009F0B8CE8091C00085FFFCCFF092C6002C
:107D7000609108027091090261157105B9F140E046
:107D800050E080910C02A82FA170B82FB27011C0E2
:107D9000BB2309F45CC0E0910601F0910701319624
:107DA000F0930701E09306014F5F5F4F46175707B7
:107DB000E8F4AA2369F3F999FECF209106013091E6
:107DC000070132BD21BDF89A90B58091C00085FFB2
:107DD000FCCF9093C6002F5F3F4F30930701209355
:107DE00006014F5F5F4F4617570718F38091C00099
:107DF00085FDE5CE8091C00085FFF8CFE0CE81E023
:107E00000E94C73C67CE0E94763C803209F08CCE3F
:107E10008091C00085FFFCCFF092C6008091C00029
:107E200085FFFCCFE092C6008091C00085FFFCCFAB
:107E3000D092C6008091C00085FFFCCFC092C600E2
:107E40008091C00085FFFCCFB092C60043CEE09188
:107E50000601F091070194918091C00085FFFCCF4D
:107E60009093C6009CCF80E10E94C73C33CE0E9415
:107E7000763C0E94763C182F0E94763C112309F430
:107E800083C0113009F484C08FE00E94C73C22CE29
:107E900080910C02816080930C02E5CE80910C02EF
:107EA000816080930C0259CF809107018823880F4D
:107EB000880B8A2180930B02809106019091070123
:107EC000880F991F90930701809306018091080203
:107ED00080FF09C080910802909109020196909359
:107EE000090280930802F894F999FECF1127E091D6
:107EF0000601F0910701C8E0D1E08091080290915D
:107F00000902103091F40091570001700130D9F34B
:107F100003E000935700E89500915700017001308D
:107F2000D9F301E100935700E89509901990009169
:107F3000570001700130D9F301E000935700E89534
:107F40001395103498F011270091570001700130FB
:107F5000D9F305E000935700E895009157000170B0
:107F60000130D9F301E100935700E895329602976A
:107F700009F0C7CF103011F00296E5CF112480919F
:107F8000C00085FFB9CEBCCE8EE10E94C73CA2CD19
:0C7F900085E90E94C73C9ECDF894FFCF0D
:027F9C00800063
:040000030000780081
:00000001FF