:100000000C945F000C9487000C9487000C9487007C
:100010000C9487000C9487000C9487000C94870044
:100020000C9487000C9487000C9487000C94870034
:100030000C9487000C9487000C9487000C94870024
:100040000C9484050C9487000C9418050C94F2040D
:100050000C9487000C9487000C9487000C94870004
:100060000C94CE050C948700414D473838787820A1
:10007000746573740000000000250028002B000444
:10008000040404040404040202020202020303033F
:100090000303030102040810204080010204081039
:1000A00020010204081020000000080002010000E6
:1000B000030407000000000000000000EA0C112407
:1000C0001FBECFEFD8E0DEBFCDBF23E0AEE8B1E08A
:1000D00001C01D92A133B207E1F711E0A0E0B1E049
:1000E000EAE8F4E202C005900D92AE38B107D9F704
:1000F00010E0CFE5D0E004C02197FE010E94391046
:10010000CE35D107C9F70E94FB0A0C9443120C9418
:100110000000CF92DF92EF92FF920F931F93CF9345
:10012000DF936C017A018B01C0E0D0E0CE15DF05D2
:1001300081F0D8016D918D01D601ED91FC91019076
:10014000F081E02DC6010995892B11F02196EECFA3
:100150007E01C701DF91CF911F910F91FF90EF902A
:10016000DF90CF900895FC01538D448D252F30E012
:10017000842F90E0821B930B541710F0CF960895B4
:1001800001970895FC01918D828D981761F0828D01
:10019000DF01A80FB11D5D968C91928D9F5F9F73BB
:1001A000928F90E008958FEF9FEF0895FC01918D5D
:1001B000828D981731F0828DE80FF11D858D90E0CA
:1001C00008958FEF9FEF0895FC01918D228D892F67
:1001D00090E0805C9F4F821B91098F73992708954F
:1001E0008CE492E00E94E40021E0892B09F420E0F5
:1001F000822F0895FC01848DDF01A80FB11DA35A41
:10020000BF4F2C91848D90E001968F739927848F36
:10021000A689B7892C93A089B1898C918370806459
:100220008C93938D848D981306C00288F389E02DFA
:1002300080818F7D80830895EF92FF920F931F93AB
:10024000CF93DF93EC0181E0888F9B8D8C8D981389
:1002500005C0E889F989808185FD26C0F62E0B8DC1
:1002600010E00F5F1F4F0F731127E02E8C8DE812E7
:100270000CC00FB607FCFACFE889F989808185FFA9
:10028000F5CFCE010E94FA00F1CF8B8DFE01E80F71
:10029000F11DE35AFF4FF0829FB7F8940B8FEA8964
:1002A000FB89808180620AC09FB7F894EE89FF893C
:1002B0006083E889F98980818370806480839FBF2F
:1002C00081E090E0DF91CF911F910F91FF90EF902F
:1002D0000895CF93DF93EC01888D8823C9F0EA89D4
:1002E000FB89808185FD05C0A889B9898C9186FD2F
:1002F0000FC00FB607FCF5CF808185FFF2CFA8892C
:10030000B9898C9185FFEDCFCE010E94FA00E7CF2D
:10031000DF91CF91089580E090E0892B29F00E9431
:10032000F00081110C94000008953FB7F89480917B
:10033000F2019091F301A091F401B091F50126B57D
:10034000A89B05C02F3F19F00196A11DB11D3FBF0D
:10035000BA2FA92F982F8827820F911DA11DB11D9B
:10036000BC01CD0142E0660F771F881F991F4A9597
:10037000D1F7089585ED8093BC008091BC0084FD89
:10038000FCCF1092270208954091CE01262F30E035
:10039000240F311D21323105DCF420912702243055
:1003A000C9F4FC0180E090E0861758F43091CE014A
:1003B0002191DC01A255BE4FA30FB11D2C930196D4
:1003C000F3CF8091CE01680F6093CE0180E0089555
:1003D00081E0089582E00895089508950895E091D8
:1003E00000028091FF01E81730F4F0E0E257FE4F81
:1003F000808190E008958FEF9FEF08959091000223
:100400008091FF01981750F4E92FF0E0E257FE4F7A
:10041000208130E09F5F9093000202C02FEF3FEFFA
:10042000C90108958091FF0190E020910002821B94
:1004300091090895CF92DF92EF92FF920F931F934D
:10044000CF93DF937C01CB018A01209128022223E4
:1004500089F0EB016B01C40ED51ECC15DD0569F0EA
:100460006991D701ED91FC910190F081E02DC701D8
:100470000995F3CF642F0E94C401C801DF91CF9189
:100480001F910F91FF90EF90DF90CF900895CF9341
:10049000DF931F92CDB7DEB7698320912802222314
:1004A000D1F020914B02203240F021E030E0FC01FD
:1004B0003383228380E090E015C080912902E82FE9
:1004C000F0E0E65DFD4F998190838F5F8093290274
:1004D00080934B0205C061E0CE0101960E94C401E9
:1004E00081E090E00F90DF91CF910895089580E032
:1004F00090E008950E9426122F923F924F925F92B1
:100500006F927F928F929F92AF92BF92CF92DF9223
:10051000EF92FF920F931F93CF93DF93CDB7DEB788
:10052000C850D2400FB6F894DEBF0FBECDBF1C013D
:100530002DB73EB7C95FDD4F39832883C750D240FE
:100540004DB75EB7405851090FB6F8945EBF0FBE65
:100550004DBF8DB79EB701966C0100E06624639491
:1005600060E8562E44244A94F1018081609228026A
:1005700080934A021092290210924B02602F70E081
:1005800060587F4F89EE92E00E94470281E00E940E
:100590004207709027027110FCCF152D101B1132ED
:1005A00008F010E2F1018081609227026092260239
:1005B00040922502109224029FEF910F9093230204
:1005C0006092020290910202880F892B80930202AE
:1005D00080910102813071F4109201028091020237
:1005E0008093BB008091BC0083FDF8CFF5ECF093C5
:1005F000BC0003C025EE2093BC008091270281300F
:10060000E1F380912402811718F49091240201C033
:10061000912FE3E0F2E0AEE8B1E080E0891721F04D
:1006200021912D938F5FFACF109200028093FF01EA
:10063000E12CF12C812E912C802F8E0DE814F904E1
:100640007CF0010F003808F48FCF9E012F5F3F4FE1
:10065000CD5FDD4F39832883C350D24089010DC05F
:100660005601A80EB11C89EE92E00E94FE01F50130
:100670008083FFEFEF1AFF0ADFCF872D880FF60187
:10068000E80FF11D818190E0982F88272081AC012F
:10069000422B9A015770BA0180E090E037FF0AC000
:1006A0000E944E0D9B01AC0160E070E0CB010E9406
:1006B000A40E02C00E944E0D20E030E040E85EE350
:1006C0000E94AF0DF80161937193819391938F0113
:1006D0007394F0E47F12D1CFC95FDD4F2881398157
:1006E000C750D2400FB6F8943EBF0FBE2DBF2FB7F4
:1006F000F8948091F7019091F801A091F901B091DF
:10070000FA012FBFF10184A395A3A6A3B7A3DE012D
:10071000AF5FBE4FCD01CD5FDD4FE881F981C350A2
:10072000D24041915191619171914D935D936D933F
:100730007D938E179F07A9F74FE350E0CF5FDD4F02
:1007400059834883C150D240C12CD12CCF5FDD4F9B
:10075000E881F981C150D240EC0DFD1DF595E7957A
:10076000EE0FFF1FEE0FFF1F81E090E08C0F9D1F2B
:10077000E80FF91FF39580809180A280B380CF5F4E
:10078000DD4FE880F980C150D2408601C801880F52
:10079000991F880F991F0E151F05E4F5E1E0F1E0A0
:1007A000EC0FFD1FE80FF91FCB5FDD4FF983E883E6
:1007B000C550D2404080518062807380A301920175
:1007C000C501B4010E94490D18160CF1F701EE0F96
:1007D000FF1FEE0FFF1F21E031E02C0F3D1FE20F46
:1007E000F31F80819181A281B38140825182628214
:1007F0007382CB5FDD4FE881F981C550D2408083A1
:100800009183A283B383F1E0EF1AF108BFCF0F5FAA
:100810001F4FBCCF21E030E02C0F3D1F820F931FF4
:10082000FC01F3952081318142815381C501B401DE
:100830000E94490D87FF02C00150110900321105C5
:10084000F4F0CF5FDD4F19830883C150D240CF5FF2
:10085000DD4F28813981C150D240C216D3060CF435
:1008600075CFCF57DE4F88809980AA80BB80C15852
:10087000D140E12CF12C00E010E0D12C0DC068013A
:100880003FEFC31AD30AE3CFFFEFEF1AFF0A20E4CA
:10089000E216F10409F45CC0CD5FDD4FE881F98117
:1008A000C350D2404190519061907190CD5FDD4F27
:1008B000F983E883C350D24020E030E040EC5FE3AE
:1008C000C501B4010E94A50E9B01AC01C301B20198
:1008D0000E94B20F1816C4F6B70183E075956795AC
:1008E0008A95E1F7072E000C880B990B0E94500D9A
:1008F00023E333E343E75FE30E94AF0D9B01AC01C9
:10090000F10164897589868997890E94A50EF10194
:10091000648B758B868B978BB70167707727072E53
:10092000000C880B990B0E94500D9B01AC01F1014A
:1009300060897189828993890E94A50EF101608B7B
:10094000718B828B938B0F5F1F4FDD24D3949CCFD1
:10095000DD2019F1B801110F880B990B0E94500D81
:100960006B017C019B01AC01F10164897589868969
:1009700097890E94110FF101648B758B868B978B81
:10098000A701960160897189828993890E94110F5C
:10099000F101608B718B828B938BC95FDD4F288156
:1009A0003981C750D2400FB6F8943EBF0FBE2DBF5D
:1009B000C85FDD4F0FB6F894DEBF0FBECDBFDF912D
:1009C000CF911F910F91FF90EF90DF90CF90BF904C
:1009D000AF909F908F907F906F905F904F903F90DF
:1009E0002F9008951F920F920FB60F9211242F93FC
:1009F0003F934F935F936F937F938F939F93AF93A7
:100A0000BF93EF93FF938CE492E00E94FA00FF9172
:100A1000EF91BF91AF919F918F917F916F915F9176
:100A20004F913F912F910F900FBE0F901F901895EF
:100A30001F920F920FB60F9211242F938F939F93B3
:100A4000EF93FF93E0915C02F0915D028081E09171
:100A50006202F091630282FD12C090818091650272
:100A60008F5F8F7320916602821751F0E0916502CB
:100A7000F0E0E45BFD4F958F8093650201C08081BB
:100A8000FF91EF919F918F912F910F900FBE0F903B
:100A90001F9018958F929F92AF92BF92CF92DF9244
:100AA000EF92FF926B017C010E9495014B015C016A
:100AB000C114D104E104F104F1F00E949501DC01BC
:100AC000CB0188199909AA09BB09883E9340A10561
:100AD000B10570F321E0C21AD108E108F10888EEEF
:100AE000880E83E0981EA11CB11CC114D104E1043E
:100AF000F10419F7DDCFFF90EF90DF90CF90BF901A
:100B0000AF909F908F9008951F920F920FB60F9203
:100B100011242F933F938F939F93AF93BF93809113
:100B2000F7019091F801A091F901B091FA0130918B
:100B3000F10123E0230F2D3720F40196A11DB11DF3
:100B400005C026E8230F0296A11DB11D2093F101D7
:100B50008093F7019093F801A093F901B093FA0103
:100B60008091F2019091F301A091F401B091F5010F
:100B70000196A11DB11D8093F2019093F301A09302
:100B8000F401B093F501BF91AF919F918F913F9187
:100B90002F910F900FBE0F901F9018951F920F92DC
:100BA0000FB60F9211242F933F934F935F936F9340
:100BB0007F938F939F93AF93BF93EF93FF93809116
:100BC000B900887F803609F49CC068F5883209F442
:100BD0005BC090F4803109F454C038F4882309F4E0
:100BE000F6C0883009F44DC0F6C0883109F44CC015
:100BF000803209F45DC0EFC0803409F468C048F465
:100C0000803309F455C0883309F0E5C0809325028C
:100C1000D8C0803509F44FC0883509F45DC08834E8
:100C200009F0D9C0D6C0883909F4C7C0A8F48837FC
:100C300009F467C038F4883609F463C0803709F4D2
:100C400060C0C9C0883809F4B8C0803909F45FC0F1
:100C5000803809F0C0C05BC0803B09F486C038F41E
:100C6000803A09F466C0883A09F47FC0B4C0803C79
:100C700009F4A7C0883C09F4A4C0883B09F48AC0E1
:100C8000AAC08091020210C0909124028091230298
:100C9000981770F5E091240281E08E0F8093240272
:100CA000F0E0ED5FFD4F80818093BB0085EC86C056
:100CB000809325028EC0E091240281E08E0F809304
:100CC00024028091BB00F0E0ED5FFD4F80839091A6
:100CD0002402809123026EC0E091240281E08E0FF5
:100CE000809324028091BB00F0E0ED5FFD4F808394
:100CF0008091260281116DC081E08093010284EA17
:100D000061C083E0809327021092F001CFCF8091E1
:100D1000F001803208F051C0E091F00181E08E0FC7
:100D20008093F0018091BB00F0E0E053FE4F8083A0
:100D3000BDCF85EC8093BC00109227028091F0011A
:100D4000803230F4E091F001F0E0E053FE4F108289
:100D50006091F00170E0E091FB01F091FC0180ED09
:100D600091E009951092F00136C084E0809327024B
:100D70001092CF011092CE01E091FD01F091FE01A1
:100D800009958091CE01811105C081E08093CE014B
:100D90001092AE01E091CF0181E08E0F8093CF01E0
:100DA000F0E0E255FE4F80818093BB009091CF012F
:100DB0008091CE01981708F479CF85E88093BC0024
:100DC0000AC085EC8093BC001092270204C01092E8
:100DD00025020E94BA01FF91EF91BF91AF919F91BF
:100DE0008F917F916F915F914F913F912F910F90D4
:100DF0000FBE0F901F90189590E0FC01E955FF4F32
:100E00002491FC01ED56FF4F3491FC01E158FF4F56
:100E1000E491EE23B1F1222339F1233091F038F43B
:100E20002130A9F0223001F584B58F7D12C0273022
:100E300091F02830A1F02430B9F4809180008F7DAA
:100E400003C0809180008F77809380000DC084B5AF
:100E50008F7784BD09C08091B0008F7703C08091E7
:100E6000B0008F7D8093B000F0E0EE0FFF1FEB58D5
:100E7000FF4FA591B4918FB7F894EC91E32BEC93CD
:100E80008FBF0895282F30914B02313208F04AC0AD
:100E9000809127028111FCCF90914A0242E0409359
:100EA0002702209326022FEF20932502109224027E
:100EB00030932302EAE2F2E0A3E0B2E020E032174E
:100EC00021F041914D932F5FFACF109202022091B1
:100ED0000202990F922B909302029091010291309D
:100EE00061F410920102909102029093BB009091E4
:100EF000BC0093FDF8CF95EC01C095EE9093BC003B
:100F0000909127029230E1F3909125029F3F79F072
:100F100080912502803241F080912502803331F0AA
:100F200084E005C081E003C082E001C083E010924C
:100F3000290210924B02109228020895CF93DF935A
:100F4000EB019091F50221E02093280290934A0250
:100F50001092290210924B02682F89EE92E00E94B3
:100F60004702688189EE92E00E94470281E0DF91AA
:100F7000CF910C944207009769F0FC01019000208A
:100F8000E9F73197AF01481B590BBC018CE492E0A3
:100F90000C94890080E090E008958F929F92AF9228
:100FA000BF920F931F93CF93DF93CDB7DEB7A19777
:100FB0000FB6F894DEBF0FBECDBF19A2423008F4C1
:100FC0004AE08E010F5D1F4F842E912CA12CB12C75
:100FD000A50194010E941710E62FB901CA01015022
:100FE0001109EA3014F4E05D01C0E95CD801EC932A
:100FF000232B242B252B61F7C8010E94BB07A19648
:101000000FB6F894DEBF0FBECDBFDF91CF911F9119
:101010000F91BF90AF909F908F9008958F929F9265
:10102000AF92BF92CF92DF92EF92FF920F931F93F6
:10103000CF93DF936B017C01142F9B01AC010E94C5
:10104000FD0F882319F08CE791E027C04601570176
:10105000E894B7F82FEF3FEF4FE75FE7C501B40122
:101060000E94FD0F81110DC02FEF3FEF4FE75FE7AB
:10107000C501B4010E94490D18161CF480E891E0E6
:101080000CC02FEF3FEF4FE75FE4C701B6010E94AE
:10109000B20F181684F484E891E0DF91CF911F918C
:1010A0000F91FF90EF90DF90CF90BF90AF909F9007
:1010B0008F900C94BB072FEF3FEF4FE75FECC7011A
:1010C000B6010E94490D87FDE6CF20E030E0A9017E
:1010D000C701B6010E94490D87FF0BC06DE28CE489
:1010E00092E00E941C01EC01F7FAF094F7F8F094FA
:1010F00002C0C0E0D0E000E060E070E080E09FE38C
:10110000101741F020E030E040E251E40E94110F5E
:101110000F5FF6CFA70196010E94A50E6B017C011F
:101120000E94830F4B015C014AE00E94CD07C80F6B
:10113000D91F1123B9F1C501B4010E944E0D9B01C5
:10114000AC01C701B6010E94A40E6B017C016EE2E6
:101150008CE492E00E941C01C80FD91F20E030E00F
:1011600040E251E4C701B6010E94AF0D4B015C01A2
:101170000E94830F6B01E12CF12C4AE0C701B601FC
:101180000E94CD07C80FD91FC701B6010E944E0D9E
:101190009B01AC01C501B4010E94A40E6B017C014E
:1011A0001150E1F6CE01DF91CF911F910F91FF9089
:1011B000EF90DF90CF90BF90AF909F908F90089569
:1011C000CF93DF930E94BB07EC018AE291E00E947B
:1011D000BB078C0F9D1FDF91CF910895EF92FF9277
:1011E0000F931F93CF93DF9300D000D0CDB7DEB71E
:1011F00085EFE82E82E0F82E88E6F70180831092D2
:1012000000021092FF011092290210924B021092DC
:10121000270281E0809326021092010282E10E945F
:10122000FC0683E10E94FC06E9EBF0E080818E7F02
:10123000808380818D7F808388E48093B80085E4FB
:101240008093BC008CEE91E09093FE018093FD01B1
:101250008DEE91E09093FC018093FB01F7011182E8
:101260001A82BE016E5F7F4F80E00E949E078FE36F
:10127000F70182838B83BE016D5F7F4F81E00E9407
:101280009E07E9EFF2E080818E7F808381FB00275B
:1012900000F910E0000F111F0983BE016F5F7F4F3F
:1012A00083E00E949E07E8EFF2E080818E7F8083DA
:1012B0001C82BE016C5F7F4F82E00E949E0764E645
:1012C00070E080E090E00E944A0581E00F900F906E
:1012D0000F900F90DF91CF911F910F91FF90EF90A2
:1012E0000895CF93DF93EC0188E891E00E94BB075B
:1012F0006CA17DA18EA19FA124E630E040E050E0EA
:101300000E941710CA01B9014AE00E94CD078AE87D
:1013100091E00E94BB07688979898A899B8942E0AC
:101320000E940E088AE891E00E94BB076C897D89C3
:101330008E899F8942E00E940E088AE891E00E940F
:10134000BB07688D798D8A8D9B8D42E00E940E08C7
:101350008AE891E00E94BB0768A179A18AA19BA1BC
:1013600042E00E940E088CE891E0DF91CF910C944E
:10137000E0084F925F926F927F928F929F92AF920E
:10138000BF92CF92DF92EF92FF920F931F93CF9372
:10139000DF93EC018B01FB0184889588A688B788D0
:1013A000A50194016C897D898E899F890E94A40E74
:1013B0006B017C0120E030E0A9010E94B20F1816F9
:1013C0005CF42DEC3CEC4CEC5EE3C701B6010E94F2
:1013D000490D87FF0FC00AC02DEC3CEC4CEC5EEBD6
:1013E000C701B6010E94B20F181624F48C8A9D8A98
:1013F000AE8ABF8AF80180889188A288B388A50147
:101400009401688979898A899B890E94A40E6B015D
:101410007C0120E030E0A9010E94B20F18165CF4B4
:101420002DEC3CEC4CEC5EE3C701B6010E94490D8B
:1014300087FF0FC00AC02DEC3CEC4CEC5EEBC70103
:10144000B6010E94B20F181624F4888A998AAA8AD3
:10145000BB8ACCA0DDA0EEA0FFA0F80184A195A1DD
:10146000A6A1B7A1C81AD90AEA0AFB0ACC8EDD8E5A
:10147000EE8EFF8E20893189428953896889798966
:101480008A899B890E94A40E4B015C01F801248982
:101490003589468957896C897D898E899F890E9403
:1014A000A40E2B013C01A5019401C501B4010E94C9
:1014B000AF0D4B015C01A3019201C301B2010E9477
:1014C000AF0D9B01AC01C501B4010E94A50E0E94A5
:1014D000BD0F4B015C01688F798F8A8F9B8FC7018D
:1014E000B6010E944E0D20E030E04AE754E40E942D
:1014F000110F9B01AC01C501B4010E94110F68A33B
:1015000079A38AA39BA3DF91CF911F910F91FF90A5
:10151000EF90DF90CF90BF90AF909F908F907F9093
:101520006F905F904F9008952FB7F8948091F701D6
:101530009091F801A091F901B091FA012FBF809329
:10154000540290935502A0935602B09357028CE434
:1015500092E00E94C20097FF26C02FB7F8948091B6
:10156000F7019091F801A091F901B091FA012FBF14
:101570004091540250915502609156027091570269
:10158000841B950BA60BB70B409150025091510252
:10159000609152027091530284179507A607B7070E
:1015A000B0F28FEF9FEF08950F931F93CF93DF93C8
:1015B000EC0188819981009729F02A813B812617C7
:1015C000370788F48B016F5F7F4F0E94601100978F
:1015D00061F0998388831B830A832C813D81232BAF
:1015E00011F4FC01108281E001C080E0DF91CF9115
:1015F0001F910F910895CF93DF93CDB7DEB7C055FC
:10160000D1090FB6F894DEBF0FBECDBF789484B574
:10161000826084BD84B5816084BD85B5826085BDEE
:1016200085B5816085BD80916E00816080936E007C
:10163000109281008091810082608093810080916E
:10164000810081608093810080918000816080931F
:1016500080008091B10084608093B1008091B000DF
:1016600081608093B00080917A00846080937A00DA
:1016700080917A00826080937A0080917A00816004
:1016800080937A0080917A00806880937A0010922B
:10169000C100E0915C02F0915D0282E08083E09104
:1016A0005802F09159021082E0915A02F0915B02C7
:1016B0008FEC808310926402E0916002F0916102ED
:1016C00086E08083E0915E02F0915F02808180611C
:1016D0008083E0915E02F0915F0280818860808368
:1016E000E0915E02F0915F02808180688083E091EA
:1016F0005E02F0915F0280818F7D808308E610E0BA
:10170000F8016491611108C08AE291E00E94BB0770
:101710000E94EE08182F09C08CE492E00E941C0180
:101720000F5F1F4F892B61F7EFCF11110EC00E9481
:10173000EE08182F8DE291E00E94E00868E873E15E
:1017400080E090E00E944A05F0CF64E670E080E01F
:1017500090E00E944A0585E093E00E947C02C12C43
:10176000D12C80E8E82E8FEBF82E44244A94542C98
:1017700032018CE492E00E94E400181619060CF085
:10178000AAC01AA619A61CA61BA61EA61DA660E026
:1017900070E0CE0189960E94D40A29A53AA581114C
:1017A0000DC02115310519F0C9010E94D7101AA6E4
:1017B00019A61EA61DA61CA61BA607C01EA61DA612
:1017C0006CE271E0C9010E943C120E94940A97FDEC
:1017D0001EC08C379105D9F089831A820DA51EA5EC
:1017E0000F5F1F4FB801CE0189960E94D40A88234B
:1017F00061F329A53AA58DA59EA5BE016F5F7F4F18
:10180000820F931F0E943C121EA70DA7DECF1A82E3
:1018100019821C821B821E821D8268E070E0CE014C
:1018200001960E94D40A29813A8181110DC02115A7
:10183000310519F0C9010E94D7101A8219821E823F
:101840001D821C821B8209C088E090E09E838D83EC
:1018500062E671E0C9010E943C128DA59EA52D8112
:101860003E8129803A8082179307D9F4892BD9F0D9
:1018700009A51AA54101F80181918F01882399F0EA
:10188000082E000C990B0E942B125C01F40181912F
:101890004F01082E000C990B0E942B12A816B906B6
:1018A00051F310E001C011E0C1010E94D7101123D3
:1018B00071F08CE492E00E9469018BE691E00E9455
:1018C000E00868EE73E080E090E00E944A0589A598
:1018D0009AA50E94D71019AE1AAE1BAE1CAE219667
:1018E0001CAE1DAE1EAE1FAE21972596CCAEDDAE52
:1018F000EEAEFFAE259729964CAE5DAE6EAE7FAED6
:1019000029972D96CCAEDDAEEEAEFFAE2D9780E1E1
:10191000E5EFF2E0DE01999601900D928A95E1F7EC
:10192000CE0189960E947C0288E2E5E0F3E0DE01C8
:10193000119601900D928A95E1F7BE016F5F7F4F7E
:10194000CE0189960E94B9092091150330911603A2
:10195000409117035091180369AD7AAD8BAD9CADE2
:101960000E94490D811112C02091190330911A0370
:1019700040911B0350911C0321966CAD7DAD8EAD43
:101980009FAD21970E94490D882381F08091F60137
:10199000811104C085E093E00E947109CE0189960F
:1019A0000E947109F1E0F093F60102C01092F60175
:1019B00088E2FE01B996A5E0B3E001900D928A9508
:1019C000E1F764EF71E080E090E00E944A050E9438
:1019D0008B01CFCEECE4F2E01382128288EE93E02A
:1019E000A0E0B0E084839583A683B7832AE031E04A
:1019F0003183208325EC30E03587248724EC30E0E8
:101A00003787268720EC30E0318B208B21EC30E0CB
:101A1000338B228B22EC30E0358B248B26EC30E0AC
:101A2000378B268B118E128E138E148EE9EEF2E018
:101A30001382128284839583A683B7838CE191E01D
:101A400091838083E5E0F3E0108A118A128A138A79
:101A5000148A158A168A178A80E090E0A0E8BFEB06
:101A6000808F918FA28FB38F4FEF5FEFBA01448FBA
:101A7000558F668F778F80A391A3A2A3B3A380E134
:101A8000E5EFF2E0A5E0B3E001900D928A95E1F771
:101A900008950E948B0D08F481E00895E89409C030
:101AA00097FB3EF490958095709561957F4F8F4F91
:101AB0009F4F9923A9F0F92F96E9BB279395F695A7
:101AC000879577956795B795F111F8CFFAF4BB0F25
:101AD00011F460FF1BC06F5F7F4F8F4F9F4F16C089
:101AE000882311F096E911C0772321F09EE8872F13
:101AF000762F05C0662371F096E8862F70E060E0CF
:101B00002AF09A95660F771F881FDAF7880F969547
:101B1000879597F90895990F0008550FAA0BE0E8EB
:101B2000FEEF16161706E807F907C0F0121613069F
:101B3000E407F50798F0621B730B840B950B39F4DF
:101B40000A2661F0232B242B252B21F408950A2645
:101B500009F4A140A6958FEF811D811D08950E9473
:101B6000C20D0C94330E0E94250E38F00E942C0EEC
:101B700020F0952311F00C941C0E0C94220E1124CD
:101B80000C94670E0E94440E70F3959FC1F3950F5D
:101B900050E0551F629FF001729FBB27F00DB11DF1
:101BA000639FAA27F00DB11DAA1F649F6627B00D81
:101BB000A11D661F829F2227B00DA11D621F739F6A
:101BC000B00DA11D621F839FA00D611D221F749F78
:101BD0003327A00D611D231F849F600D211D822FBF
:101BE000762F6A2F11249F5750409AF0F1F08823E6
:101BF0004AF0EE0FFF1FBB1F661F771F881F915013
:101C00005040A9F79E3F510580F00C941C0E0C9497
:101C1000670E5F3FE4F3983ED4F38695779567951A
:101C2000B795F795E7959F5FC1F7FE2B880F911D3C
:101C30009695879597F9089597F99F6780E870E0E2
:101C400060E008959FEF80EC089500240A94161632
:101C5000170618060906089500240A94121613069A
:101C6000140605060895092E0394000C11F4882328
:101C700052F0BB0F40F4BF2B11F460FF04C06F5F44
:101C80007F4F8F4F9F4F089557FD9058440F551F1A
:101C900059F05F3F71F04795880F97FB991F61F0EE
:101CA0009F3F79F087950895121613061406551F65
:101CB000F2CF4695F1DF08C0161617061806991FD1
:101CC000F1CF86957105610508940895E894BB27C6
:101CD00066277727CB0197F908952F923F924F926D
:101CE0005F926F927F928F929F92AF92BF92CF92AC
:101CF000DF92EF92FF920F931F93CF93DF93CDB7B5
:101D0000DEB7CA1BDB0B0FB6F894DEBF0FBECDBF2C
:101D100009942A88398848885F846E847D848C84FD
:101D20009B84AA84B984C884DF80EE80FD800C8106
:101D30001B81AA81B981CE0FD11D0FB6F894DEBFE9
:101D40000FBECDBFED0108955058BB27AA270E94B2
:101D5000BC0E0C94330E0E94250E38F00E942C0EFF
:101D600020F039F49F3F19F426F40C94220E0EF45F
:101D7000E095E7FB0C941C0EE92F0E94440E58F3EB
:101D8000BA17620773078407950720F079F4A6F560
:101D90000C94660E0EF4E0950B2EBA2FA02D0B01BD
:101DA000B90190010C01CA01A0011124FF27591BA0
:101DB00099F0593F50F4503E68F11A16F040A22FA6
:101DC000232F342F4427585FF3CF46953795279517
:101DD000A795F0405395C9F77EF41F16BA0B620B16
:101DE000730B840BBAF09150A1F0FF0FBB1F661F5D
:101DF000771F881FC2F70EC0BA0F621F731F841FA0
:101E000048F4879577956795B795F7959E3F08F0C5
:101E1000B0CF9395880F08F09927EE0F9795879587
:101E200008950E94250F0C94330E0E942C0E58F03A
:101E30000E94250E40F029F45F3F29F00C941C0EFF
:101E400051110C94670E0C94220E0E94440E68F3FC
:101E50009923B1F3552391F3951B550BBB27AA2763
:101E600062177307840738F09F5F5F4F220F331F9D
:101E7000441FAA1FA9F335D00E2E3AF0E0E832D065
:101E800091505040E695001CCAF72BD0FE2F29D068
:101E9000660F771F881FBB1F261737074807AB073A
:101EA000B0E809F0BB0B802DBF01FF2793585F4FAF
:101EB0003AF09E3F510578F00C941C0E0C94670E7E
:101EC0005F3FE4F3983ED4F3869577956795B79591
:101ED000F7959F5FC9F7880F911D9695879597F99C
:101EE0000895E1E0660F771F881FBB1F6217730715
:101EF0008407BA0720F0621B730B840BBA0BEE1F2A
:101F000088F7E09508950E944C0E88F09F5798F04E
:101F1000B92F9927B751B0F0E1F0660F771F881FEE
:101F2000991F1AF0BA95C9F714C0B13091F00E9408
:101F3000660EB1E008950C94660E672F782F8827FF
:101F4000B85F39F0B93FCCF3869577956795B3952F
:101F5000D9F73EF490958095709561957F4F8F4F9E
:101F60009F4F08950E948B0D08F48FEF089519F488
:101F700016F40C94220E0C9402100E944C0EB8F32E
:101F80009923C9F3B6F39F57550B87FF0E94101092
:101F90000024A0E640EA900180585695979528F4D1
:101FA000805C660F771F881F20F0261737074807C9
:101FB00030F4621B730B840B202931294A2BA69520
:101FC00017940794202531254A2758F7660F771F65
:101FD000881F20F026173707480730F4620B730B71
:101FE000840B200D311D411DA09581F7B901842F6F
:101FF0009158880F9695879508950E948B0D880BB0
:10200000990B08959F3F31F0915020F48795779573
:102010006795B795880F911D9695879597F90895BF
:1020200091505040660F771F881FD2F70895A1E2A4
:102030001A2EAA1BBB1BFD010DC0AA1FBB1FEE1F42
:10204000FF1FA217B307E407F50720F0A21BB30B8D
:10205000E40BF50B661F771F881F991F1A9469F709
:1020600060957095809590959B01AC01BD01CF0165
:102070000895EE0FFF1F0590F491E02D09940F9342
:102080001F93CF93DF938230910510F482E090E0AC
:10209000E0912F03F091300320E030E0A0E0B0E0C9
:1020A000309719F1408151810281138148175907F6
:1020B000C8F08417950769F4109731F012960C93C5
:1020C000129713961C9327C000932F03109330038D
:1020D00022C02115310519F04217530718F49A014F
:1020E000BD01EF01DF01F801DBCF21153105F9F06A
:1020F000281B390B2430310580F48A819B816115BE
:10210000710521F0FB019383828304C09093300317
:1021100080932F03FE01329644C0FE01E20FF31FAD
:102120008193919322503109398328833AC02091B9
:102130002D0330912E03232B41F420910201309185
:10214000030130932E0320932D0320910001309141
:1021500001012115310541F42DB73EB7409104012D
:1021600050910501241B350BE0912D03F0912E03B6
:10217000E217F307A0F42E1B3F0B2817390778F05E
:10218000AC014E5F5F4F2417350748F04E0F5F1FBD
:1021900050932E0340932D038193919302C0E0E06E
:1021A000F0E0CF01DF91CF911F910F910895CF9370
:1021B000DF93009709F481C0FC01329713821282E9
:1021C000A0912F03B0913003109781F420813181C9
:1021D000820F931F20912D0330912E03281739076A
:1021E00051F5F0932E03E0932D0367C0ED0120E03D
:1021F00030E0CE17DF0740F44A815B819E01411534
:102200005105F1F0EA01F5CFD383C28340815181BA
:10221000840F951FC817D90759F488819981840FB5
:10222000951F0296918380838A819B819383828309
:102230002115310529F4F0933003E0932F033DC0BD
:10224000E901FB83EA8349915991C40FD51FEC172B
:10225000FD0761F480819181840F951F0296E90149
:1022600099838883828193819B838A83E0E0F0E075
:1022700012968D919C911397009719F0FD01DC0146
:10228000F7CF8D919C9111979D012E5F3F4F820F4B
:10229000931F20912D0330912E032817390769F4DD
:1022A000309729F41092300310922F0302C013824A
:1022B0001282B0932E03A0932D03DF91CF91089546
:1022C000A0E0B0E0E6E6F1E10C94710EEC010097BD
:1022D00021F4CB010E943F10B4C0FC01E60FF71FB0
:1022E0009C0122503109E217F30708F4A8C0D90174
:1022F0000D911C91119706171707B0F005301105C5
:1023000008F49BC0C80104978617970708F495C086
:1023100002501109061B170B019311936D937C93C7
:10232000CF010E94D71089C05B01A01AB10A4C01ED
:10233000800E911EA0912F03B0913003612C712C5F
:10234000E12CF12C109709F446C08D919C911197C6
:10235000A815B905B1F56C0142E0C40ED11CCA1430
:10236000DB0478F14C018A189B08640142E0C40E3A
:10237000D11C1296BC9012971396AC91B5E0CB1677
:10238000D10440F0B282A38391828082D9016D93FF
:102390007C9309C00E5F1F4F800F911FF90191833D
:1023A0008083EB2DFA2FE114F10431F0D70113965D
:1023B000FC93EE93129741C0F0933003E0932F0308
:1023C0003CC06816790608F43C017D0112960D9018
:1023D000BC91A02DB7CF80912D0390912E0388162C
:1023E0009906E1F466167706C8F480910001909191
:1023F0000101009741F48DB79EB7409104015091BF
:102400000501841B950BE817F907C8F4F0932E0318
:10241000E0932D03F901718360830FC0CB010E940B
:102420003F107C01009759F0A801BE010E943312B1
:10243000CE010E94D710C70104C0CE0102C080E0C7
:1024400090E0CDB7DEB7EEE00C948D0E81E090E029
:10245000F8940C9443129111089581548A5108F410
:10246000805E855A0895FB01DC0102C001900D9247
:1024700041505040D8F70895FB01DC0101900D92C6
:0A2480000020E1F70895F894FFCF63
:10248A00000031038000000000001C018900B30035
:10249A006901E400C200D6000000000047021A02E7
:1024AA007702EE011202FE01EF010D0A00436F7579
:1024BA006C64206E6F742066696E64206120766198
:1024CA006C696420414D47383878782073656E739B
:1024DA006F722C20636865636B20776972696E6717
:1024EA0021006964656E74696679004C6F63617472
:1024FA00696F6E2041726475696E6F006E616E005D
:0E250A00696E66006F7666005B002C005D0057
:00000001FF
